:020000040000FA
:0400000080312628FD
:100008007E1480312000111F0A280B2824288031F3
:100018007C2080312000111381313C218031003A4D
:1000280003191728182824288131342180317708AA
:10003800F9007608F800813101218031242824282C
:100048007E10090080312828F001F101F201F30146
:10005800F401F5012000A001A101A201A301A4015E
:10006800A5017E1020008031392881311D21803181
:1000780022000E163F282000A701C8302702031CC3
:10008800462847284928532853280130A60026081F
:10009800A707C8302702031C5228532849282200E2
:1000A8008E152000A70150302702031C5C285D280C
:1000B8005F28692869280130A6002608A70750305C
:1000C8002702031C682869285F2822008E11200057
:1000D8008E1C6F287028742822000C110E123F28DD
:1000E80022000C150E163F283F283F28803126286D
:1000F80021009D1880288128B9281C08F600F701DE
:100108007608F8007708F9000830F835F90D890BFA
:1001180089281B08F600F7017608F8047708F9041F
:1001280078082000A0077908A13D0130F60076087C
:10013800F00710307006031DA228A328B628073040
:10014800A0070030A13D200E0F39A200210EF03982
:10015800A204210E0F39A300A001A101F001F101B1
:10016800F10AB62821009D14B92808008B135530D0
:100178003C008F00AA308F000F108B170C303D0009
:10018800A3008B1355303C008F00AA308F000F144A
:100198008B17FF3020009E001F08FC3901389F0094
:1001A800FC3025009F0513160F3093041030920081
:1001B8009101931720001F150800F1012000A201EA
:1001C800A301A001A101F00121001D08033948384D
:1001D8009D009E171E088F3960389E001E11FC3046
:1001E8009E051D140430890BF728200011130B17E6
:1001F800210011178B179D140800FF307805F800AF
:1002080003307905F9007908FB007808FA00FB3615
:10021800FA0CFB36FA0C7A082500920078080339A4
:10022800FA000530FA35FF3E031D16297A3591008C
:10023800080021000C1122000C1521000E122200CA
:100248000E1221008E1122008E1121008E1423001F
:100258008E108031E12081318031BA20813108004F
:10026800F10120002308F7002208F6003B290800C6
:0602780071083E29080098
:020000040001F9
:08000E00ECFF73F7FFFFFFFF99
:00000001FF
